:020000040800F2
:1000000040460120BD4F0008E5490008A94F0008FF
:10001000A94F0008A94F0008A94F000800000000E0
:100020000000000000000000000000001151000866
:10003000A94F000800000000C9500008F16F000837
:1000400095520008955200089552000895520008F4
:1000500095520008955200089552000895520008E4
:1000600095520008955200089552000895520008D4
:1000700095520008955200089552000895520008C4
:1000800095520008955200089552000895520008B4
:1000900095520008955200089552000895520008A4
:1000A0009552000895520008955200089552000894
:1000B0009552000895520008955200089552000884
:1000C0009552000895520008955200089552000874
:1000D0009552000895520008955200089552000864
:1000E0009552000895520008955200089552000854
:1000F0009552000895520008955200089552000844
:100100009552000895520008955200089552000833
:100110009552000895520008955200089552000823
:100120009552000895520008955200089552000813
:100130009552000895520008955200089552000803
:1001400095520008955200089552000895520008F3
:1001500095520008955200089552000895520008E3
:1001600095520008955200089552000895520008D3
:1001700095520008955200089552000895520008C3
:1001800095520008955200089552000895520008B3
:1001900095520008955200089552000895520008A3
:1001A0009552000895520008955200089552000893
:1001B0009552000895520008955200089552000883
:0801C000955200089552000859
:1001C8007BB972B90029BEBF00204FF0004106E09C
:1001D80008BF00281CBF6FF000414FF0FF3000F04F
:1001E80057B8ADF1080C6DE904CE002909DB002BE6
:1001F8001ADB00F04FF8DDF804E0DDE9022304B073
:100208007047404261EB4101002B1BDB00F042F8D4
:10021800DDF804E0DDE9022304B0404261EB41016E
:10022800524263EB43037047524263EB430300F0CF
:1002380031F8DDF804E0DDE9022304B0404261EB67
:1002480041017047524263EB430300F023F8DDF8A5
:1002580004E0DDE9022304B0524263EB4303704734
:1002680053B94AB9002908BF00281CBF4FF0FF3115
:100278004FF0FF3000F00CB8ADF1080C6DE904CE7A
:1002880000F008F8DDF804E0DDE9022304B0704767
:10029800704700BF2DE9F04786468C460846089E01
:1002A800154674461946002B40F0C2808542B2FAC2
:1002B80082F245D94AB1C2F1200300FA02FC2EFAB3
:1002C80003F3954043EA0C0C94404FEA154EA8B24C
:1002D800BCFBFEF8230C0EFB18CC08FB00F943EA24
:1002E8000C43994528D9EB1808F1FF3704D29945F2
:1002F80002D9A8F102072B44A3EB0903A4B2B3FB6C
:10030800FEFC0EFB1C330CFB00F044EA0344A04245
:1003180014D92C190CF1FF3304D2A04202D9ACF144
:1003280002032C44241A43EA07401EB1D440002398
:1003380034607360BDE8F0874746DDE76346F1E760
:1003480092BB431B01214FEA154EAFB2B3FBFEFC33
:10035800200C0EFB1C330CFB07F840EA03439845BE
:1003680062D9EB180CF1FF3004D2984502D9ACF1F0
:1003780002002B44A3EB0803A4B2B3FBFEFC0EFB64
:100388001C330CFB07F744EA0344A7424ED92C1947
:100398000CF1FF3304D2A74202D9ACF102032C447A
:1003A800E41B43EA0040C0E7C2F1200320FA03F14E
:1003B800954090402EFA03F303434FEA154EAFB22F
:1003C800B1FBFEFC0EFB1C10190C0CFB07F841EAF4
:1003D8000041884504FA02F422D969180CF1FF306B
:1003E80004D2884502D9ACF102002944A1EB0801E6
:1003F8009BB2B1FBFEFC0EFB1C110CFB07F743EA9A
:1004080001439F420ED9EB180CF1FF3104D29F42F1
:1004180002D9ACF102012B44DB1B41EA004192E70F
:100428006046E3E76146F7E76046A3E76346B7E758
:10043800834206D916B9002108467BE7C6E900E0E1
:10044800F9E7B3FA83F78FB9834201D3724508D825
:10045800BEEB020460EB030301209C461EB9002199
:1004680068E73846FAE7C6E9004CF8E7C7F1200C18
:10047800BB4022FA0CF41C432EFA0CF120FA0CF3C0
:10048800B84001434FEA14490EFA07F5B3FBF9F8EF
:100498001FFA84FE09FB18300B0C08FB0EFA43EA1E
:1004A80000439A4502FA07F240D9E31808F1FF30F1
:1004B80004D29A4502D9A8F102002344A3EB0A0307
:1004C80089B2B3FBF9F809FB183308FB0EFE41EAC1
:1004D80003418E452CD9611808F1FF3304D28E45AB
:1004E80002D9A8F10203214443EA0040A0FB029884
:1004F800A1EB0E014145CE46434602D306D14D45F8
:1005080004D2B9EB020E68EB04030138002EA6D022
:10051800B5EB0E0261EB030101FA0CFC22FA07F3BA
:100528004CEA0303F940C6E9003198E74046C5E7BD
:100538004346D9E710F8012B11F8013B012A28BFDF
:100548009A42F7D0D01A7047034611F8012B03F8E6
:10055800012B002AF9D17047034613F8012B002A12
:10056800FBD1181A013870472DE9F04704468AB0C4
:10057800884617460BF032FE0A220023FFF770FE6A
:10058800B8F1010F06460D4608D12B4ACDE9000106
:100598000821204609F06FFD002012E07F682748F7
:1005A8003946FFF7C7FF78B139462548FFF7C2FF3C
:1005B80050B120463B46234A012109F05CFD6FF00B
:1005C80004000AB0BDE8F0873046294618A3D3E9ED
:1005D8000023FFF7F5FD06460D46104619461A4A50
:1005E8000023FFF7EDFD80460F46104619464EF6EC
:1005F80060220023FFF7E4FD82468946104619462B
:100608004FF47A720023FFF7DBFDCDE904A9CDE9A9
:100618000601CDE9082308210C4A2046CDE90287C6
:10062800CDE9006509F027FDB6E700BFAFF300800C
:10063800005C260500000000B7E50008C8E50008D2
:10064800CBE50008D4E5000880EE3600EBE50008AD
:1006580038B5194C20460BF0CCFB58B1226920461E
:10066800A168136823F0020313604FF4C0220B68DB
:10067800012198471148036803F00703022B04D9A6
:1006880006230F4A032109F004FB0B4D00214FF408
:10069800FA6007F059FD00F0F7FA28B1A3685B6922
:1006A800022128469847F1E723691B689B07A3683E
:1006B80054BF1B69DB68F3E788C8000858010120AC
:1006C80096D800082DE9F0432D4C87B0236800AF79
:1006D80003F00703022B05D905232A4A03212046E4
:1006E80009F0D7FADFF8A080284E254D4FF0FF32E9
:1006F80007F108014FF0FF33404607F029F83A4662
:10070800397B07F1100000F093F970B34FF0FF3216
:100718004FF0FF331E4807F075F83B461D4A03CBE0
:10072800106051601A4807F0E5F8384600F02CFAD6
:10073800236803F00703022BD8D9E9468AB0388822
:1007480079886A46B7F90430DFF84CC0C2E9071364
:100758000523C2E905C042F8103F00234FF4235196
:10076800284601F029FDCD46C0E7236813F0060F9F
:10077800BCD0BB6802213246284609F08AFAB5E7A0
:1007880058010120CDD80008A401012035D900085E
:100798007C010120B0170120FDD80008B0B5304C0D
:1007A80000AF236803F00703022B3CD92D4A03212D
:1007B800204609F065FA236803F00703022B32D9B3
:1007C800294A0321204609F05BFA236803F007034E
:1007D800022B28D9254A0321204609F051FA23681B
:1007E80003F00703022B1ED96D468AB06A46204BD8
:1007F8005361204B9361204BD361204B1362204BF4
:1008080042F8103F00234FF42351204601F0D4FC56
:100818002368AD4603F00703022B04D9114A0321CC
:10082800204609F02DFA00F0A1F900F05FF82368DE
:10083800054650B15B0705D0124A03460121084816
:1008480009F027FA2846BD46B0BD03F00703022B7E
:10085800F8D90D4A0321024809F012FAF2E700BF5D
:10086800580101206FD90008A2D90008D5D900087D
:1008780008DA00081DDA000829DA00080002010376
:100888000400000232DA000857DA000870B5074C95
:10089800A5682046AB68984700214FF47A7007F0A6
:1008A80053FC6B682046BDE87040184764C90008CF
:1008B80003291FB5ADF80C2011D10A4803685B075E
:1008C80008D09DF80C309DF80D2001210092064AB1
:1008D80009F0E9F905B05DF804EBFFF7D7BF05B0FB
:1008E8005DF804FB3C010120C0DA0008F0B585B0D2
:1008F800384C394E20460BF07CFAF0B127694FF49A
:10090800C022A56800213B68204623F001033B6014
:100918002B6898473B68D8074FF0010154BF2B69F3
:10092800EB6820469847336803F00703022B04D985
:100938002A4A0321284809F0A3F9294D28460BF033
:1009480058FA60B93368590704D0264A0121224869
:1009580009F096F96FF01204204605B0F0BDAC68B6
:10096800002221492846636A98470121E3682846FE
:100978009847636828469847044648B133685A0739
:10098800EAD01A4A03460121134809F082F9E3E73D
:10099800174A01AB07CA83E8070016491A462846D2
:1009A80005F038F8051E336809DA5B0705D0124AE6
:1009B8002B460121084809F06CF92C46CCE703F0D6
:1009C8000703022BC8D90D4A0321034809F058F937
:1009D800C2E700BF88C800083C010120F8DA000817
:1009E80064C9000822DB0008B908000844DB0008D5
:1009F80058CE0008A401012073DB00089ADB000828
:100A080013B5044609480BF0F4F958B100234FF424
:100A18007A7221460548CDE90033002304F084FFAB
:100A280002B010BD6FF01200FAE700BF64C90008F9
:100A3800072973B5054614463DD9002A3BD00378EB
:100A48000822D42111F0800F4FEA410101D081F032
:100A58002F01013AC9B2F5D181F01A01082211F02B
:100A6800800F4FEA410101D081F02F01013AC9B24C
:100A7800F5D12A46EE1D12F8010F4140082011F069
:100A8800800F4FEA410118BF81F02F010138C9B228
:100A9800F5D19642EFD1C943C9B28B420ED018485E
:100AA800026812F0060F04D0164A0091022109F0DC
:100AB800FAF80023E371002002B070BD12496B7888
:100AC8000A7803F00F03FF2A0CD0013202F00F025C
:100AD800934207D00A48016811F0060FE9D0009246
:100AE8000A4AE3E70120A3710B70E071AB78238019
:100AF800B5F803309B0863806B79283BA380DBE75C
:100B080048010120E2DB0008C000012019DC0008D0
:100B180070B403460E4C0F48002122780546CEB229
:100B2800B2420ED8082A11D00B48511C25F81230B1
:100B380002682170520709D0084A012170BC09F0E7
:100B4800A8B830F8026B01319E42E8D170BC7047FA
:100B5800C8170120B81701206401012063DC0008D0
:100B6800014806F0C7BE00BF9001012008B5002269
:100B7800034B1A7008F0FFFB024B186008BD00BF5A
:100B8800C81701206811012010B504464FF0FF3343
:100B98004FF0FF320D4806F035FE08F0ECFB0C4B29
:100BA8001860B4F90430692B03DD40F21510FFF723
:100BB800AFFF628841F664139A4203D940F21920C4
:100BC800FFF7A6FFBDE81040FFF7CABF900101205C
:100BD8006811012070B504460E464FF0FF334FF000
:100BE800FF32114806F00EFE08F0C5FB0F4B1B68DC
:100BF800C01AB0F57A7F03D94FF48070FFF788FFE9
:100C08000B4B0C4A1D782346B54228BF354604EBEA
:100C180045018B4203D1FFF7A3FF284670BD32F888
:100C2800020B23F8020BF4E7900101206811012060
:100C3800C8170120B817012008B54FF0FF324FF050
:100C4800FF330C4806F0DEFD0B4B00221A7008F04B
:100C580092FB0A4B18600A48036803F00703022B4B
:100C680003D9084A032109F00BF8BDE80840FFF74B
:100C780077BF00BF90010120C8170120681101202B
:100C8800640101208CDC000810B54FF0FF324FF0F2
:100C9800FF33064806F0B6FD054B1C78003C18BF2C
:100CA8000124FFF75DFF204610BD00BF9001012021
:100CB800C817012030B52C4C85B08900283225781A
:100CC80089B2013505F00F0525700024CDE90144EE
:100CD800039440F223148DF80B10009408248DF827
:100CE8000D20D422E1408DF804408DF809508DF88C
:100CF8000C1021468DF80A0012F0800F4FEA4202CC
:100D080001D082F02F020139D2B2F5D182F01A0255
:100D1800082112F0800F4FEA420201D082F02F0220
:100D28000139D2B2F5D102AC012114F8010F4240C9
:100D3800082012F0800F4FEA420218BF82F02F02FB
:100D48000138D2B2F5D101310829EED143B182F090
:100D5800AA0268468DF80820FFF752FE05B030BD9C
:100D6800D243D2B2F5E700BFC917012010B5044637
:100D7800FFF762FF034A0821204609F07CF90020AA
:100D880010BD00BFD1DC00082DE9F041082186B074
:100D980005460DEB0100FFF71DFF04460346104A08
:100DA8000821284609F067F944B90E4A082128465F
:100DB80009F061F9002006B0BDE8F08102AE002715
:100DC800DFF8248036F8023B0137424608210093B9
:100DD80028463B4609F04FF9FBB29C42F2D8E9E7B6
:100DE80002DD000837DD00086DDD0008012938B58F
:100DF800044606D81C4A082109F03DF96FF0150091
:100E080038BD556819492846FFF794FB034660B971
:100E1800732240F6B8315A20FFF74CFF144A204697
:100E2800082109F028F90020EAE712492846FFF7C7
:100E380081FB034638B9582241F690218C20FFF7F0
:100E480039FF0D4AEBE70D492846FFF773FB40B918
:100E58005822012340F6C4115020FFF72BFF084AFF
:100E6800DDE7084ADBE700BF80DD0008B6DD0008E3
:100E7800BFDD0008FEDD000808DE00084ADE0008C5
:100E880052DE000893DE0008012938B504460CD864
:100E9800134B144A1978144B002918BF1346134AE8
:100EA800082109F0E8F8002038BD5568104928469F
:100EB800FFF740FB40B90122094B1A700D4A08217F
:100EC800204609F0D8F8EEE70B492846FFF732FB31
:100ED80018B9034B094A1870F1E7094AEFE700BF50
:100EE800C1000120C3DE0008D2DE0008E0DE0008F1
:100EF80042E9000815DF000854DF000858DF000841
:100F0800A0DF0008012973B5064607D8104A082152
:100F180009F0B1F86FF0150002B070BD50680BF021
:100F280017FB054680B20023582200EB800404EB2F
:100F3800840404F59664A4B22146FFF7BBFE30464C
:100F4800ABB2044A0821009409F095F80020E3E7C1
:100F5800DEDF0008FCDF000838B504464FF0FF3339
:100F68004FF0FF32204806F04DFC20461F4A08216A
:100F78001F4D09F080F820461E4A082109F07BF829
:100F880020461A4A082109F076F82B8820461A4A82
:100F9800082109F070F86B882046184A082109F0E2
:100FA8006AF8B5F904302046154A082109F063F8B3
:100FB800AB792046134A082109F05DF8E979124A0D
:100FC8002046124B002918BF1346114A082109F080
:100FD80052F8064A0821204609F04DF8024806F062
:100FE80089FC002038BD00BF7C01012049E00008D1
:100FF800B017012073E000089DE00008BCE000087D
:10100800DAE00008F9E000082FE000083AE00008FC
:1010180013E1000870B501253224104E4FF4FA6030
:10102800002107F091F83378002BF7D004EB450442
:10103800A4B2722C0FD82D2C98BF012504EB840183
:1010480000235822204601EB810101F5966189B2FF
:10105800FFF730FEE2E74FF0FF35EFE7C100012070
:101068002DE9F04F91B0840705460E46009302F033
:101078000403DDF868900293C2F3C203039203F1FC
:101088000103059340F0BA81041D30B1072909D83E
:101098006FF01B0011B0BDE8F08F01F00706341D9A
:1010A800C6F10806009B4FF000084FF0040A591ECD
:1010B8004FF0FF334746C34601935346CDF810809F
:1010C8000DB1009A22600598002800F3E88098483E
:1010D800009A824203D397488242C0F0E080039A84
:1010E800A4EB050E92074FEA9E0000F103810F2F33
:1010F80000F2B180002D00F0058107F140020DEBF0
:10110800020C019A0CF8200C0CF8102C04980130F1
:101118000490E7E07A285DD84B280ED8472859D89C
:1011280029282DD8252852D054D820287AD02338D9
:10113800D0F1000B4BEB000B74E04C382E2849D84B
:10114800DFE800F070484848484848484848484858
:101158004B484848484848484859484B4B595959BA
:10116800704B6D487048184B184848827F4B484868
:101178004B487F0000204FF0000B4FF0040A38E086
:101188002A380122C0B202FA00F010EA0E0F49D143
:1011980010F0625C2FD110EA020B43D06046013C8C
:1011A8005444B4FBFAF40AFB04F4002D61D0A3EB19
:1011B800050CA444B4453FF66BAF002868D1042B56
:1011C80047D159F8043B2360043404232AE0019AE8
:1011D800013A01924FF0000B24E011F8010C6C2841
:1011E80034D111F8023C00206C2B8346C5D14FF056
:1011F800080A5346D3E709F10709073429F0070914
:1012080024F00704F9E802AB35B106982044B0424F
:101218003FF63EAFC4E900AB08344FF0000B4FF087
:10122800080A534611F8010F002878D0BBF1000FC7
:101238007FF470AF2528F5D1019B4FF0010B0133E6
:1012480001934FF0040AECE7584694E700208346E0
:10125800A5E7082B02D06FF015001BE709F1070975
:1012680029F00709F9E80223C4E900230834082310
:10127800D8E768B9042B02D109F10409A4E7082BBF
:10128800E9D109F1070929F0070909F10809EDE78A
:10129800059A013A059259F8042B009210E7039A2F
:1012A800900720D5A4EB050E4FF0010C4FEA9E00E5
:1012B800BEF5007FCFD20F2FCDD8F5B107F1400290
:1012C800C0B20DEB020E019A0EF8200C0EF8102C8D
:1012D800BCF1000F3FF41AAF60F07F0008F101087D
:1012E8000EF8200C0137C5F1080204344FF6DA7EF7
:1012F800069297E74FF0000CDAE7BCF1000F01D037
:101308000136EFE7029802360028EBD10098CDE9C4
:101318000631FFF721F90644DDE90631E2E7631BF0
:10132800B3F5806F97D23DB9A6F10804E018B1E68D
:1013380054C70008A8FF00089B08029A28602B7071
:101348009DF81030C2B1EB7085F80280B8F1000F3B
:1013580005D008A80022C5F1010C97420ED1C5F1AD
:1013680001030DF120094FF0000A0DF1300B019334
:10137800574512D1601B8DE66B70E5E710F8013B0D
:10138800190608D504EB0C0E03F07F03B6453FF6AB
:101398007FAE04F8013B0132DFE7B8F1000F03D05C
:1013A80099F90020002A17DB029BD3B11AF80B2009
:1013B80004F8012B0022019B98182044B0423FF604
:1013C80067AE99F80000009904F8010B20460392D3
:1013D8000BF07AF9039A14440AF1010A09F1010998
:1013E800C6E799F8002055F822300093029B009830
:1013F80045F82230FFF7B0F8421CDCE76FF00D002B
:1014080048E600BF2DE9F04F97B00446894600AF83
:1014180090F802A0D7F880B03B62CBF3C003FA6221
:10142800BB6141B9457800780AEB800020444D45FE
:1014380017D8A0EB0409E378FB61BAF1000F02D0DA
:101448001BF0010F16D1FB6953BBFB6A1BB13A6A4B
:101458004946204698474D4628465C37BD46BDE874
:10146800F08F461C09F101093046FFF775F8013085
:101478003044DCE72378626899007A62FA6A796115
:1014880004EB8301002A40F004814D460E4601EB2F
:101498000A094FF000084E4550D101EB0A0610E04A
:1014A8001BF0020FD1D023789A0004EB83017A61F4
:1014B80062687A62FA6A002A7BD14D4601EB0A0615
:1014C80090461BF0050F0CBF02230123FB62FB694A
:1014D80006EB430A0BF00203BB625645BCD016F874
:1014E800021B16F8013C54F823909B4B994502D3F4
:1014F8009A4B99453AD3BB69002B44D0786A07F0D8
:10150800DCFF00283FD09648036813F0060F13D07D
:10151800E9468AB06A46934B53617B6AC2E9063151
:101528004FF400731384904B42F8103F00234FF49C
:10153800125100F041FECD46023DCEE716F8013BC0
:10154800F96254F82300FFF707F8D7F88430013020
:10155800F96A4BB1D7F8883098453EBFD7F8843040
:1015680023F8180008F10108054494E7BB6923B182
:10157800786A07F0A2FF0028C5D11BF0010F05D13A
:10158800FB6AED1AA9E7BB6A002BA6D04846FEF70E
:10159800E3FFD7F8843053B1D7F8883098453FBF78
:1015A800431CD7F8842022F8183008F101080544B4
:1015B80093E7BAF1000F72D01BF0040672D0D04640
:1015C800002607F1480052463B61B9620BF07CF8EF
:1015D800B96A3B6901EB0A02F969BA62FA69520011
:1015E800FA60BA6A02EB41023A610BF00202BA6091
:1015F8003A69B96A8A4257D11BF0020F62780CBF68
:101608004FEA580100217A621BF0010F3244D2B22E
:1016180040F09F801BF0040F14BF40460020BB61C0
:101628006270A0702046E1703A6A7969FB6A98474F
:10163800051EFFF611AFBB6941463A6A07F148003B
:1016480023707B6A84F802A06370FB69E370FB6A0D
:101658009847B0F10008C0F2B5807B69A9EB0A0190
:101668003A6AC91AFB68C91AD7E90A0398470028D1
:10167800C0F2AA80A8444FF0000B07F1380A08EB23
:101688000005B34572D300213A6AFB6A08469847B9
:10169800E2E656464FF0000807F1380093E7564651
:1016A800D04697E7B04695E7BA6A12F8021B12F8D7
:1016B800015CBA6254F82500274A904202D3274AAF
:1016C80090421ED3BA6932B1786A7B6007F0F5FEA2
:1016D8007B6800288CD1BA6802BB08F1280207F1A0
:1016E800300C08F1010008F10208944407F158028F
:1016F8005FFA88F852FA80F00CF8101C00F8105CB9
:1017080076E7BA693AB1786A7B6007F0D6FE7B68FB
:1017180000287FF46DAF1BF0010F09D006F12802F5
:1017280007F13000711C161806F8205CCEB25FE78E
:101738001BF0040F3FF45CAF08F1280207F13000FA
:1017480008F1010102EB000808F8105C5FFA81F863
:101758004EE7002063E700BF54C70008A8FF000851
:10176800440101209FE20008040000011BF80A3030
:1017780054F8239087F83730D7F88430FBB133F822
:101788001B803A6A012107F13700FB6A9847002855
:101798001ADB0544B8F1000F06D14846FEF7DCFE17
:1017A80000F101081FFA88F83A6A41464846FB6A80
:1017B8009847002808DB05440BF1010B61E7D7F8CF
:1017C8008480DEE7454647E6054645E6014B186056
:1017D800704700BF0000012080B505460E46174639
:1017E800984606F0CDFCDFF8209003460AF0A4FFE7
:1017F8000446424649F8003039463046A84754F86E
:10180800090003F005FC00BF08000000044608B505
:10181800EFF31183102383F31288BFF36F8F0AF05D
:10182800D2FA204603F0E2FB024807F06DFE09F009
:101838002EFCFCE753E30008034A0020536823F01A
:1018480002035360704700BF002004E0064B0020ED
:101858001A6842F400721A601A6842F480721A60B8
:10186800024B034A1A607047003C0240AC0001205A
:101878000024F4002DE9F04395B005460E4600AF6C
:10188800D0F8AC800AF015FB044608B1037833B9E8
:101898003C1D2B46274A0B21381D07F007FA39460D
:1018A80028460AF016FB0346D0B12348026802F026
:1018B8000702022A12D9E9468AB06A46D3614FF470
:1018C80000731E4913841E4BC2E9051442F8103FE9
:1018D80000234FF4135100F06FFCCD4600233B600A
:1018E8003B6807F138012846A8EB0303C7E90A4813
:1018F8003B630AF0F5FA88B907F110000AF0FAFA22
:1019080080B96424B86BFD6BA0FB0401D7E90423FC
:1019180004FB0511FEF7A4FC786303E007F110004F
:101928000AF0E8FA07F12800B0475437BD46BDE889
:10193800F08300BF7CE30008740101207FE3000806
:1019480004000001F8B5234E00AF0446326802F0E7
:101958000702022AD0E901133AD96D468EB0D0F8B1
:1019680000C06A46C068DFF870E05162C2E905EC61
:10197800A1EB030CC2E907C34FF0640C0CFB03F3A3
:10198800B3FBF1F3C2E90A304FF400731386134B2B
:1019980042F8103F002344F2C041304600F00CFCEE
:1019A8003368AD4603F00703022B11D988B0D4E998
:1019B80006016A460A4B53610423C2E9060142F84C
:1019C800103F00234FF40351304600F0F5FBAD46BD
:1019D800BD46F8BD74010120A6E300080800000117
:1019E800E5E30008F0B583B001461A4800AF06F0F9
:1019F80087FC4FF400613A1D17480AF05EFA034667
:101A080020BB1648026802F00702022A1ED97D6828
:101A18006C468EB0C5F500616A46C2E908514FF4BC
:101A280000650F4E95626425566169430D4EC90ADB
:101A3800D1624FF4007111860B49C2E9066342F87E
:101A4800101F44F2C04100F0B7FBA5460C37BD4655
:101A5800F0BD00BF7D180008C038012074010120C6
:101A680009E400083EE4000808000001074808B53A
:101A7800036803F00703022B03D9054A032108F082
:101A8800FFF80448BDE80840FFF7ACBF7401012027
:101A980042E400084D19000838B5044C0025FFF74A
:101AA800E5FF2046294606F04FFBF8E7A08601002F
:101AB8002DE9F047044607464FF00109DFF850804A
:101AC80014B93846BDE8F08794FAA4F5B5FA85F557
:101AD80009FA05F32E0108EB05156FEA030A24EA53
:101AE80003042B7B002BEBD058F806301B694BB94D
:101AF80046440422284607EA0A077368196800F072
:101B08001BFBDDE7284698470028D9D1F0E700BF3E
:101B1800D0CD000830B5002289B00F490F480AF02F
:101B28005FFB0022002300240D4D0E492846009437
:101B3800CDE906230E234FF44072CDE90334CDE9F5
:101B48000144094B06F040F80849284605F05AFFB9
:101B5800204609B030BD00BF791B0008E00901200C
:101B680010050120002D0120851E000862E40008F0
:101B7800014805F0FBBE00BFD40101202DE9F04764
:101B880080461E480F4607F0D9FF064678B3002561
:101B98002846BDE8F087237B6BB12368DB680BB16F
:101BA8002046984723681B69CBB9636804222046FE
:101BB800196800F0C1FA013610344C45EBD3B8F17E
:101BC800000FE5D0002DE2D02846FFF771FF05464B
:101BD800002FF7D00021642006F0B6FAF2E720467D
:101BE80098470028E1D00AFA06F31D43E3E7044CBE
:101BF8000546DFF810904FF0010ADEE77C1101205E
:101C0800D0CD0008E0CD000808B5034608462BB142
:101C1800044A136000F072FD002008BD6FF0150043
:101C2800FBE700BF0400012010B5044C237813B96A
:101C3800034805F09BFE0123237010BDCA1701203D
:101C4800D401012010B50446084807F077FF5CB1BD
:101C5800074BBFF35B8F53E8001F013943E80012BD
:101C6800002AF8D1BFF35B8F10BD00BF74110120AB
:101C7800781101200020064BBFF35B8F014653E823
:101C8800000F43E80012002AF9D1BFF35B8F7047B9
:101C98007411012070B5FFF7EDFF084C0546084E9A
:101CA800B44200D370BD63685B792BB123685B686D
:101CB80013B12946204698471034F1E7D0CD0008E3
:101CC800E0CD000810B5044C0449204607F023FD78
:101CD800034B1C6010BD00BFF4000120ACCF00080E
:101CE8006C11012008B5094A00234FF47A7108489D
:101CF8001370084A1360084A1360FFF785FFFFF75F
:101D0800E1FFBDE8084000F067B900BFCB1701202C
:101D18005F9B000874110120781101200146002200
:101D28000023014807F018BDF4000120014807F01E
:101D3800AEBD00BFF4000120024B0146186807F051
:101D4800FABD00BF6C110120014807F02FBE00BF8B
:101D5800F4000120324B2DE9F041187800285DD0BD
:101D6800FFF7E4FF044698B12E4BBFF35B8F53E8AF
:101D7800001F013943E80012002AF8D12A4DBFF3A9
:101D88005B8FDFF8A880454526D32046FFF7D4FFB0
:101D9800274B284C1B68002B12DD0AF01FFA0A2279
:101DA8000023FEF75DFAD4E90032C01A40F2E933A5
:101DB80061EB0201984271F1000101D3FFF76AFF5C
:101DC800D4E9003213F57A7342F10002C4E9003213
:101DD800BDE8F041FFF7B8BF6B685B793BB121788C
:101DE8004B0706D52B68214628461B6898471035AF
:101DF800C9E726882046C1F3C20700F0BDFAC6F33A
:101E080082160246002EEDD00028EBDB012339466E
:101E1800284600F0ABF9B042E9D3E3E7BDE8F0812A
:101E2800CA17012078110120D0CD0008E0CD0008A4
:101E380074110120D809012070B50D4D297861B9B8
:101E48000C4C01200C4EFFF799FEB44206D3FFF765
:101E580081FF0028FBD101232B7070BD63685B797B
:101E68001BB1236820469B6898471034EDE700BFF4
:101E7800CB170120D0CD0008E0CD000800212DE9C6
:101E8800F0470846FFF77AFE044658B34FF4FA784D
:101E98004FF000091C4B0AF04FFC1C4A1B581360FA
:101EA80033B11B4B1B68092B02DD1A4805F05EFD98
:101EB8000025194FDFF85CA044B12046FFF7F8FD74
:101EC800044618B94FF0FF384FF0FF39FFF742FFCB
:101ED800064628B9B5B942464B46504605F06CFD52
:101EE8003546E9E74FF0FF384FF0FF39D2E72B6866
:101EF8009B691BB100222846114698471035BD4200
:101F0800F5D3E8E7054DFAE7080000007011012055
:101F180078110120D4010120E0CD0008D0CD0008BF
:101F280013B5184807F00AFE174B1B7873B1EFF387
:101F38001184102383F31288BFF36F8FFFF70AFF12
:101F480084F31188BFF36F8F02B010BD0F4B1B686D
:101F5800002BF9D050B9002200230D48CDE9002309
:101F680042F21072002306F0C9FBEDE70928EBD115
:101F780007480AF041F9074802B0BDE8104005F0EB
:101F8800F5BC00BF78110120CB170120701101208A
:101F9800E0090120D4010120064B10B504461B6856
:101FA80098472146A060044807F052FCBDE810405D
:101FB800FFF7B6BF04000120F4000120044A054BD6
:101FC8009B1AB1EBD30F34BF52F831000020704791
:101FD80048CD0008D0CD00080B4800210B4B1B1A38
:101FE800043030B5DB080A4C994200D130BD10F8F6
:101FF80031200131256802F0070225F007052A4340
:1020080044F8042BF0E700BF48CD0008D0CD000805
:1020180038010120F8B50B4F06460B4D0024ED1B87
:10202800ED08AC4203D14FF0FF342046F8BD57F815
:10203800340020B13146FEF77DFA0028F5D001348E
:10204800EFE700BF48CD0008D0CD000800282DE9F3
:10205800F047884615461F461DDADFF898904FF07E
:10206800000A254E5446A6EB09063609B24509F181
:10207800100902D12046BDE8F08759F80C0C3B4600
:102088002A46414600790AF1010AFFF7DFFF844238
:1020980038BF0446EAE7194B194AD21AB5EBD20FF2
:1020A80025D203EBC5031C79BC4228BF3C46C0B20D
:1020B8000722144E002100EB400056F825308240DC
:1020C80023EA020304F0070282401343032223FA9F
:1020D80002F0033200F00700814238BF01461E2A91
:1020E800F5D123F007030B4346F82530C2E7002457
:1020F800DDE700BFD0CD0008E0CD000848CD0008DE
:10210800D0CD000838010120F8B5094D0646094B25
:102118000F460024ED1AED08AC4200D3F8BD22B2F8
:1021280001343B4600213046A4B207F02FFDF3E707
:10213800D0CD000848CD000838B50B4B0D461146E8
:102148004268C31A04461B1101331371436899711D
:10215800FFF7DAFF636801221D6063685A71BDE802
:102168003840FFF761BD00BFD0CD000870B14168AD
:10217800097973B1002A17DBCBB20C4903EB43038F
:1021880051F82200D84000F0070070474FF0FF31A7
:10219800EFE707490748401AB2EBD00F3ABF01EB07
:1021A800C201087918467047042070473801012099
:1021B80048CD0008D0CD00082DE9F04F8FB0C1F30D
:1021C8004A280D46914604AF0C0DB8607B60B8F103
:1021D800000F67D0002607F114034FF0040B4FF0EF
:1021E8000A0AC7F80C8032467E624846C7E9076685
:1021F800019307F11C03CDF808B0CDF800A0F968E9
:10220800FFF700F9B0F5006F034620D32A480368AA
:1022180013F0060F17D06C468AB0D9F8041004AB37
:10222800264D1A46C3E9055140F2FF71D9614FF4B2
:1022380000711984224B42F8103F4FF41251334673
:10224800FFF7BAFFA5462C37BD46BDE8F08FC0F3AF
:102258000A0804F117003B60184468F3532520F07E
:1022680007008008FFF75AFD044690B13B6800F16B
:102278001001144A4846F961C7E9083607F1140302
:10228800CDF808B0CDE900A307F11C03F968FFF702
:10229800B9F868F353257B68B96820462A4607F0E1
:1022A8009FFCD0E704F1170020F007008008FFF733
:1022B80035FD0446EDE700BF5001012077E4000832
:1022C80004000001BD9B00082DE9F04F87B00446CB
:1022D800934698460391DDE91279DDE9105ADFB19A
:1022E8003B46524610210020CDF80090CDF81490BE
:1022F800FEF7B6FEB0F5006F06460ED31C4803681D
:1023080013F0060F30D040F2FF731A4A022107B0CB
:10231800BDE8F04F07F0BDBC3E4604F0070405F1E8
:1023280017000BF0070BE400304444EA8B1420F04C
:10233800070044EA4624800844EA0554FFF7EEFC07
:10234800054640B13FB13B46524631461030CDF8C4
:102358000090FEF785FE434622460399284607B0BB
:10236800BDE8F04F07F03CBC07B0BDE8F08F00BFF8
:1023780050010120B6E40008406820B1034BC01AA0
:1023880040F38F0070474FF0FF307047380101204D
:102398000EB403B503AB0146054853F8042B01936B
:1023A80003F016F902B05DF804EB03B0704700BF04
:1023B800FD9C0008CA0605D48B064CBF0249034998
:1023C800FFF7E6BF704700BF5EE70008EEE40008CD
:1023D8002DE9F04F89B09B4604460D46149B904664
:1023E8009DF84CA00693159B179E0593169B049386
:1023F800BAF1000F00F09D8006F4807306F0020920
:10240800079307F0C1FB024600283ED091492046B9
:10241800FFF7BEFF0746B9F1000F08D016F0440FCA
:1024280035D12A468C492046FFF7B2FF074406F00B
:10243800010353B1894B2046894953F82A20894B17
:10244800002A08BF1A46FFF7A3FF06F48073002B83
:1024580049D006F00803002B63D1B8F1000F66D00D
:10246800424681492046FFF793FF0546069B3D44B7
:10247800002B6DD1049B002B73D1F30700F1E4808E
:1024880031462046FFF796FFD8E00746C3E7774B6B
:1024980018680028CAD0764B4FF47A794FF46161F6
:1024A8004FF03C0C1B68B5FBF3F5B5FBF0F300FBF4
:1024B800135509FB05F5B3FBF1F2B5FBF0FE01FB83
:1024C800123100FB1E55B1FBFCF309FB05F50CFBB3
:1024D8001311B5FBF0F5009120466649CDE901E5F9
:1024E800FFF756FFA2E706F00803EBB1624B204660
:1024F800624953F82A20FFF74BFF0546B8F1000F51
:1025080005D0424658492046FFF742FF0544BBF133
:10251800000FABD05A465A492046FFF739FF054409
:10252800A4E74FF0000BE1E706F00805E6E74546AB
:102538009CE7BBF1010F069B06D1002B64D1049BDD
:10254800002B7BD000250CE0002BF8D04D485CE038
:102558004D48069B22464D4906F07EFF049B002B02
:1025680068D0DFF82C81DFF82C91049F4FF0000B26
:1025780031462046102F28BF1027FFF71BFF5D4567
:1025880045DC059B4FF0010B494620461A78FFF7BA
:10259800FFFE1BF0070F03D141462046FFF7F8FE68
:1025A8005F453BD9059B4946204613F80B20FFF7AA
:1025B800EFFE0BF1010BBBF1100FEAD14FF0000B4E
:1025C80035492046FFF7E4FE5A46059B20469A5CAB
:1025D800A2F120015F29314928BF2E22FFF7D8FE3A
:1025E8000BF1010BBBF1100F1DD01BF0070F03D12E
:1025F80041462046FFF7CCFE5F455A46E5D841469E
:102608002046FFF7C5FEEBE71F485546A1E74146C0
:1026180020460BF1010BFFF7BBFEB0E7204920462F
:10262800FFF7B6FEC5E7059B3B440593049BDB1B00
:1026380004939AD1BAF1000F7FF41FAF204609B076
:10264800BDE8F04F07F049BB064A20460449FFF7AA
:102658009FFE15E7F6E40008FAE40008C0CF00087A
:10266800CBE90008F1E400081FE500088411012007
:102678008011012003E50008D4CF000823E50008F5
:1026880029E50008339D0008FD9C0008D95500087D
:10269800D3D900082EE5000834E50008DCEF00086F
:1026A800D1D9000842F20F73114A8B4273B5044620
:1026B80028BF0B4605680521684606F0F7FA6368E7
:1026C8000646042228465B680A4907F0F8FA636858
:1026D8003246694628465B6807F0F1FA63681722B4
:1026E80005495B68284607F0EAFA02B070BD00BFEA
:1026F80043FC00084EE5000836E5000800210123E8
:10270800064A904206D8064A01B901231360054BD0
:1027180018607047400801215B00F2E740420F0053
:102728008011012084110120014B036002207047B1
:10273800E8CF000808B5034A0821034B07F09BFCC3
:10274800002008BDA4E500089EE5000810B5044671
:1027580004F0F2FC084A03460821204607F08BFCE7
:10276800064A2046082107F086FC2146044805F061
:10277800C7FD002010BD00BF39E6000858E6000874
:102788008D270008F0B59BB004460D46D0F8AC6024
:1027980009F08FFB384B024609F0CEFF195828463E
:1027A800364B002A18BF1346354ACDE90043354B4E
:1027B8008C4218BF1346344A082107F05CFC0821F4
:1027C8002846D4E90A23CDE9022394F90E302F4A8A
:1027D8000093237B07F04FFC202212A9204605F026
:1027E80021F9626F0346082128460092284A07F01B
:1027F80042FC06A9204609F073FB18BB0CA809F097
:1028080079FB10BB069F6421DDF81CE0A7FB010CD7
:10281800DDE90C2301FB0EC1FDF722FD3B460090CC
:1028280008211C4A284607F026FC05A9204609F07D
:1028380050FB034678B1184A0821284607F01BFCCC
:102848001BB0F0BD0CA809F055FB144A0821284616
:1028580007F011FCE9E7059A64232846B11A4B43AF
:10286800B3FBF6F3CDE90021CDE902630C4A334608
:10287800082107F000FCE3E70800000062E6000812
:10288800D3D90008B3F9000865E6000871E6000826
:102898009DE60008B4E60008FCE60008D9E6000852
:1028A80029E70008F0B593B0002504461C220AAFBA
:1028B80029460BA8154E09F02FFF1A222021384669
:1028C80009F02AFF2146124805F01AFD09AA4FF41B
:1028D8000061304609F0F1FA099964224FF4006367
:1028E800C1F500604243D20ACDE90403CDE90231C3
:1028F80020460692A6F14003064A0821CDE9005772
:1029080007F0B9FB284613B0F0BD00BFC03801205E
:10291800FD29000860E7000810B5044604F02AFC09
:10292800034A03460821204607F0A5FB002010BDF6
:10293800A9E700082DE9F34117460023044601AA38
:102948000A21B868019301F065FB019DC6B255B133
:102958002B46154A0121204607F08DFB019D28468C
:1029680002B0BDE8F081042E0AD933460F4A01218E
:10297800204607F080FB2046012507F0B6FBEEE76E
:102988007868FFF747FBB0F1000805DA7B6801219A
:10299800074A204607F06FFB002133460FFA88F2FA
:1029A800084607F0F3F8DAE7BFE70008E6E70008AB
:1029B800FDE7000837B51346002205460A210192B3
:1029C80001AA586801F026FB019C4CB920EAE07086
:1029D8000A2180FB010105F0B7FB204603B030BD9A
:1029E8002346034A0121284607F045FB019CF4E7EA
:1029F8001CE80008F0B5044689B00D46D0F8AC6074
:102A080007A909F066FA034630B1104A082128469A
:102A180007F031FB09B0F0BD20460D4F09F049FA27
:102A2800079A6423002818BF0746B11A28464B4363
:102A3800B3FBF6F3CDE90221CDE90463054A234649
:102A48000821CDE9007607F016FBE3E7FCE600086D
:102A580062E600083CE800082DE9F04387B0054627
:102A68001A4F6846DFF8688004F036FC1423009E8D
:102A78000821184A03FB0066284607F0FCFADFF82D
:102A88005890009CB44203D3002007B0BDE8F083FF
:102A980023680BB11A7832B923463A46142101A8A3
:102AA80006F004F901AB42460821284607F0E3FA8C
:102AB8002046143409F09DF9084B094A08210028DA
:102AC80008BF4B46284607F0D6FADBE7C4E90008FA
:102AD800C9E90008BAE90008B1E90008ABE900084B
:102AE8003BF000088B1E022B2DE9F0410746884673
:102AF800144637D810220021606806F079F9B8F139
:102B0800020F064607D12023254A0821384607F038
:102B1800B2FA336816E00A220021A06806F068F9C4
:102B28001F4AC5B2082138462B4607F0A4FAB8F167
:102B3800040F1AD0102D0DD0202DEAD0082D0CD15D
:102B48003378DBB2174A0821384607F094FA002098
:102B5800BDE8F08133889BB2F4E7134A0821384670
:102B680007F089FA6FF01500F2E710220021E068FB
:102B780006F03EF90D4A034604460821384607F098
:102B88007AFA102D06D0202D07D0082DE5D1E4B211
:102B98003470DCE7A4B23480D9E73460D7E700BFEB
:102BA80002EA00082DEA000817EA00083EEA0008D1
:102BB8002DE9F04F4FF0FF35584B91462026012262
:102BC8002C46DFF85CA185B0074688461A6002F0FB
:102BD8002DFD49465246404602F04CFD411C07D1A6
:102BE8006A1C52D14F4A0121384607F044FA1DE0C9
:102BF800732820D0772833D0612817D1DFF828B17F
:102C080010220021DBF8000006F0F2F80546002843
:102C1800DFD1464B09F090FD1B58162BD9D1DBF8B4
:102C28000030434A0121384607F025FA6FF01500B5
:102C380005B0BDE8F08F0022DFF8ECB01146DBF8F4
:102C4800000006F0D5F804460028C2D1374B09F039
:102C580073FD1B58162BBCD1DBF80030354AE1E771
:102C68000022DFF8C4B01146DBF8000006F0C0F817
:102C780006460028ADD12D4B09F05EFD1B58162BDA
:102C8800A7D1DBF800302C4ACCE7631C01D12B4AD2
:102C9800A9E75FFA86F8C6F3C406002C3CD06B4659
:102CA8002946A6EB050C1A460CE0B8F1100F1DD00A
:102CB800B8F1200F20D0B8F1080F2AD10878187081
:102CC80031443344A64203D80CEB01001028ECD958
:102CD800102CA1462946384628BF4FF01009103558
:102CE8004B46A4EB090401F061F8D6E7088880B2E6
:102CF8001870000A5870E3E708684FEA102E187039
:102D080083F801E04FEA104E000E83F802E0D87015
:102D1800D6E70B4A082167E7204689E774000120B7
:102D28008CEA000893EA0008401501200C00000016
:102D380052EA000865EA000878EA0008B0EA0008E4
:102D480017EA000870B5104E04460D46337881B175
:102D58002BB10E4A0121BDE8704007F08CB9012360
:102D680033700B4A0821204607F085F90123337098
:102D780004E083F001033370002BF2D1294620468A
:102D8800BDE8704007F0CEB9CC170120CAEA0008A8
:102D980005EB000870B504463C480378182B02D1AF
:102DA8000B78112B31D0013A0B468D18AB4225D147
:102DB8008B5C0A780370A2F13003354C092B04D9D7
:102DC80022F02003413B052B04D823683149CA541B
:102DD800013323602368022B34D1102200212D48AF
:102DE80006F006F82C4A136803F8010B13602B4A07
:102DF8001368013313600023236023E013F8016B89
:102E0800182ED3D11E78112ED0D1244D0821244A52
:102E180020462B6807F02FF920460021FFF792FF84
:102E2800204B187870B9204A2B681168042B0ADCEB
:102E380008B111602B6013F003010BD112681368FD
:102E48001BBA136070BD0868043B00BA41F8040B54
:102E58000120EBE75B4203F0030358BF5942022904
:102E680004D1126813885BBA9BB2EAE70329E9D157
:102E7800106802681104C2F3074302F47F4201F4A8
:102E88007F010B4313430360DCE700BFCD1701202C
:102E980088110120CF170120941101208C110120E5
:102EA8002FEB0008CE170120901101202DE9F84FD3
:102EB80000230C462A490646DFF8A88015460B6011
:102EC800DFF8A4902949DFF8A8B088F800300B6033
:102ED800012C2F4655F804AF1ED902224946504608
:102EE80009F057FB80B99AF80220003A18BF01226E
:102EF800924420490222504609F04BFB30B9012385
:102F080088F80030013CE3E70022F1E749465046E3
:102F1800FDF710FBA8B9043700227868114605F0C0
:102F2800F1FE0022144B11461860786805F0EAFE9D
:102F3800124B134918603046FFF704FF0020BDE824
:102F4800F88F9AF800202D2AE6D19AF80120002A55
:102F5800E2D053465A460821304607F08CF8D1E7AC
:102F680088110120CE17012049EB00088C1101209F
:102F78004FEB00084CEB0008941101209011012040
:102F88009D2D000807B50A4808F033FF60B10423F7
:102F9800084A0749009301231268074800F078FFA0
:102FA800002003B05DF804FB6FF01200F9E700BFE2
:102FB80050C90008A8D10008E0CD000810B5446841
:102FC800A3604023C4E9001242680821D36402F1D7
:102FD8005803D16202F1500113630023146853634C
:102FE8001364116153611362C2F8D030C2E90E3321
:102FF800C2E91133C2E90633C2E90933A36823B130
:103008009B6C13B1044920469847A3689B6A0BB18F
:1030180020469847002010BD253000082DE9F743C9
:1030280004460D4683685B6C03B19847A3685B6BE5
:103038000BBB4FF0000905F13008EA6C01A94046C6
:1030480006F0C1FC0746002836D0A36801999B69A1
:103058003BB3024620469847064628B331464046C9
:1030680006F0D1FCB7424FF00109E6D0D5E90131AD
:103078000020984703E0204698470028D9D1A36844
:103088005B6A63BB05F11007EA6A01A9384606F0D6
:10309800EEFC064650BB204606F0A3FEC5F8D060FD
:1030A8002FE06FF05706D9E70146404606F0ABFC23
:1030B800B9F1000FE3D0D9E71648036813F0060FFB
:1030C80003D0154A022106F0DBFDA3689B69002B9B
:1030D800EED001220DF1030120469847E8E720468B
:1030E80098470028CED103B0BDE8F083A3680199C2
:1030F8005B695BB10246204698470146384606F0B0
:10310800D5FC0120D5E901319847ECE76FF057016C
:10311800F4E700BF6C010120B0EC000810B581682D
:103128000446183101F0AAF9A1682046024A18316C
:10313800BDE8104001F048B9F1EC000838B58368E3
:103148000446D3F87832DB071DD4C06907F0F9FCD0
:10315800606803685B689847054620B9E06807F02F
:10316800C4FEA3681D75A3685B6C13B1294620468D
:103178009847A368002209F0DFFAC3F82023034B1D
:10318800185801F045FF6FF00F05ECE70800000044
:10319800014906F0CABE00BF5EE70008F7B504465D
:1031A80080680D46D0F878325A0705D5002106F018
:1031B800DEFEE06807F06BFEE368DB6873B9002D9C
:1031C8003BD0A66806F15607384606F0A8FE002848
:1031D80035D0394606F5AB70FDF7B6F9A2680DF1A2
:1031E80006032946E068563207F054FE58B9A0682D
:1031F80000F5AB715630FDF7A7F9A068563006F018
:103208008EFEADF80600204607F07CFAA368D3F8D6
:1032180074329B0603D50B49606906F086FE20468A
:1032280000F060FFA268BDF806302046A2F85230D0
:10323800A268A2F8503007F0CBF903B0F0BD86F8C9
:103248005601CBE774CE00082DE9F04FA7B004462D
:103258005422002111A809F05FFA00232046CDE985
:103268000533A3685633029307F053FA204607F054
:1032780098F910B96069FFF78BFFA0681422002144
:10328800002618304FF0FF3709F046FA204607F0BD
:1032980030F9A168E068B246B1F850200DF1440851
:1032A8005631B3463546B14607F02BFE204607F0A7
:1032B800AAFE0396DDE90532012A6DD0132B6ED8DC
:1032C8005FBBBBF1000F0AD0204607F0BDFEA26825
:1032D800142311A956320DEB030006F089FFB9F14A
:1032E800000F0CD099F81130FE2B08D1059B26AAA7
:1032F80002EB830252F8542C0AB101330593A068FB
:10330800059D436A002B40F0B680CEB1C3699E424A
:103318002DD000F118050D9624E00223029A4146AB
:1033280006A806F065FFD8F804200699034602921D
:1033380031B101290AD148B16D4A204607F09AFAFD
:103348006FF00705284627B0BDE8F08F059B002BD6
:1033580034D0D8F8000001F0B1F898B166B1A5688A
:103368000D9618350CAE0FCE0FC533682B6020466E
:103378000125FFF7D3FEE5E75E4A0121204607F065
:1033880079FADDE7059BCBB1D8F80020294620461D
:1033980001F042FA022809D1059B132B91D9069B0B
:1033A800022B8ED1544B0121544AC6E7032805D07D
:1033B800059B4FF0010B013305937BE7039B33B962
:1033C80007AAD8F80010484607F009F8054608F19A
:1033D8000408013F9DB3EB68BBF1000F08D0F3B1BF
:1033E800204607F096F9204607F0F2F8444AC4E769
:1033F800ABB1A368AE46DDF814A003F1180CBEE823
:103408000F00ACE80F00DEF80030CCF80030AB68F5
:103418002BB96B7CFE2B04BF2F7C07F1FF37D5F847
:1034280004C0BCF1000F08D0AE460CAEBEE80F00D9
:103438000FC6DEF8003033606646A94603E0059BF8
:1034480053B101230393069B17B9022B7FF432AFC4
:10345800059B013305932DE7A368DB6A13B1DB688D
:10346800002BEED1274B0121274A20460093119BC0
:1034780007F000FAE5E790F82830A5EB0A05BBB19C
:1034880090F829104FF6FF72FF2918BF0A469D428F
:1034980002D313449D420BD9836901211B4A20465C
:1034A80007F0E8F920466FF01505FFF737FE49E702
:1034B800012106F051FDA06800F5437006F070FD8B
:1034C800A36811AA29465B6A204602EB8A0298473C
:1034D8000546A0684FF0FF324FF0FF3300F5437008
:1034E80006F005FD0021A06806F036FD2AE700BFBA
:1034F800FFEC000813ED000874ED000829E100084E
:1035080031ED000860ED00084FF0000898ED000864
:1035180010B50222836804461A7583689B6CBBB990
:1035280006F0BCFC8368D3F87832DB040BD50321A2
:10353800084B094A07F09EF9A0686FF4805100F51E
:103548001E7006F0C5FC2046BDE8104000F01EBF06
:1035580010BD00BFB3ED0008CBE900082DE9F04F1E
:1035680004468068B1B0012100F51E7006F0A1FC88
:10357800A3681B7D022B20D100230993A3686068F0
:103588009E6C03681D6909AB0EB310221BA9A847DE
:10359800099B93B10121A06806F0DEFC099A1BA9DA
:1035A8002046B0470021A06806F0D6FCA3689B6CB3
:1035B800002BE3D12046FFF7ABFFA0686FF00101B5
:1035C80000F51E7031B0BDE8F04F06F081BC012255
:1035D8000DF12301A847099B002BEED09DF923206C
:1035E8009DF82310002AA368C8DB5A7D032A00F23D
:1035F8009882DFE812F0040085029C0296020D29E9
:103608007CD00A2958D0B3F8782209296FF3CA0266
:10361800A3F87822A06800F086803DD80029ADD0B4
:10362800082900F0FC810346D3F874229207A5D537
:1036380001391629A2D801A252F821F0D93B000875
:10364800613A0008693A0008593A0008CD3B000879
:10365800873A000885350008853500088535000853
:10366800853500088F3A0008973A00088535000824
:10367800C13A000885350008CB3A000885350008AE
:10368800853500088535000885350008CF3A0008DB
:1036980085350008F93A00081B2941D07F2900F038
:1036A800CA81A1F1200203465E2ABDD8012106F095
:1036B8005EFC9DF82310B9E0D3F87822C2F3C70264
:1036C8002AB1D3F87822C2F3C7020A2AACD1B3F8D8
:1036D800782261F3CA02A3F87822A568B5F85010D9
:1036E800C1B9284606F043FCE06807F0D0FB6069E2
:1036F800FFF74EFD2046FFF70BFF3FE7D3F8782290
:10370800C2F3C702002AE2D0D3F87822C2F3C70274
:103718000D2ADBE72046FFF797FDC5F82403E9E704
:10372800012343752AE7D0F874329B077FF526AF4B
:10373800012106F01CFCA068B0F85030FF2B3FF4C4
:103748001DAFB0F8522000F1560100F5AB7000250E
:1037580008F0BAFFA3681BA90BA8B3F852201344BA
:1037680083F856511423A26802F5AB7206F040FDA7
:103778000B9914293FF602AF30AB03EB810343F8F2
:10378800545CA368B3F85220002A53D0134493F82A
:103798005530202B02D0093B042B4BD800294CD1A3
:1037A80000250A9530AA0A9B002602EB8303B3463C
:1037B800B04653F854AC3746504606F0B0FB814645
:1037C80016AA3946284600F0EBFB0346002840D1EC
:1037D800012EA76865D130AA0A9B02EB830353F830
:1037E800540C06F09CFB07F1180206464146284691
:1037F80000F0D6FB0568284606F091FB864205D006
:10380800821BA919204692B207F07BF8A068B0F88D
:103818005230034493F85630202B31D0093B042B07
:103828002ED9D0F87432DF072FD42021204600F09B
:1038380075FDA3E60129B3D9013900200CAB1BAAF9
:1038480000930AAB019006F0F6FD05460028A9D1C1
:1038580094E61B684A4651461846039308F099FEB9
:1038680060B9039B1846FCF777FE584538BF5846A1
:10387800002E08BFB84601361FFA80FB01379FE7C4
:103888000121204606F0D8FE78E6002106F079FBF3
:103898002021204600F042FD0121A06806F071FBBE
:1038A8006CE604907FF66AAE30AB0A9AC14603EB29
:1038B800820252F8543C1846039306F030FB049BEE
:1038C8000590A7F840300496A2684946284609F1B1
:1038D8000109183200F064FB039BD0F800A04BB13B
:1038E800BAF1000F06D0059A1946504608F051FE65
:1038F8000028E9D1A168BAF1000F4ED1A1F840A083
:10390800049B013B0493DFD1606908F1010AFFF7CA
:103918003FFC204600F03AFD30AA0A9B02EB8303E5
:1039280053F8540C06F0FBFA414611AA8146284682
:1039380000F036FB0746A068FF22396800F5AB7037
:1039480008F039FE3B684FF6FF770393B84616AA8E
:10395800514628460AF1010B00F022FB002852D0FC
:10396800A1680022036801F2551111F801EF985C73
:10397800704503D110B101324245F6D1B9F1000FBB
:1039880001D04A4507DBBA4206F1FF36A8BF3A46DE
:10399800012E97B237D0DA46D9E79948069106F052
:1039A800BEFA069900EB0B074A8FBFB20791121AAD
:1039B800504692FBF7F292B2069206F0B0FA0799D7
:1039C8003F1A069AB1F84000BFB200F1010CA1F805
:1039D80040C0B0FBF2F102FB110080B260B9884B25
:1039E8000621884A2046CDF800A006F043FF394654
:1039F800204600F061FB83E75346834A06212046B0
:103A080006F038FFF3E7002F3FF4B8ADA7EB090243
:103A18000399204692B2494406F073FFAEE5D0F808
:103A280074329E077FF5AAAD012106F0A0FA204660
:103A380006F088FFA2E5D0F874329D077FF59EADA9
:103A4800012106F094FAA368D3F874321907EED46A
:103A5800204606F058FF91E5204606F063FE8DE506
:103A6800204606F056FE204606F09BFD10B9606918
:103A7800FFF78EFB0121A06806F079FA3AE62046A6
:103A880006F059FE7AE5204606F060FE76E5D3F8A2
:103A980074329B0603D55D49606906F046FAA3684F
:103AA800D3F874329F0603D55949606906F03DFA88
:103AB800204600F06BFC61E500212046FFF76EFB15
:103AC8005CE50121F9E7204606F01CFE204606F0D9
:103AD800E5F90121A06806F04AFAA368D3F8743220
:103AE8009E067FF54BAD4B49606906F01EFA45E529
:103AF800204600F071FB0121A06806F038FA3DE588
:103B08005B2902D102225A7538E5D3F874329D0731
:103B180006D5622907D14FF0FF31204606F0B4FDE3
:103B2800A3680022EFE76629FAD10121F5E7002210
:103B38005A75A268D2F8743298077FF51FADA1F1C3
:103B480031031B2B3FF61AAD01A151F823F000BF3A
:103B5800D53B0008E13B0008F53B0008C93B0008DD
:103B68008535000885350008853500088535000845
:103B78008535000885350008853500088535000835
:103B88008535000885350008853500088535000825
:103B9800CB3A0008C13A0008873A0008613A0008A1
:103BA80085350008CD3B000885350008D93B00085D
:103BB800853500088535000885350008E53B00088F
:103BC80003235375204606F0A4FDD7E40323537559
:103BD800204606F097FDD1E403235375A068D0F87A
:103BE800741201F0010181F0010157E603235375B6
:103BF800A368D3F874329B077FF5C0AC28E700BFF1
:103C0800D2D90008F7ED0008CBE9000879CE000802
:103C18007ECE000874CE000810B5836804461A7D6D
:103C2800012A2BD1D3F87822510408D5D3F874226D
:103C3800520704D40146DA6CC06906F06BFFA0682D
:103C48004FF0FF324FF0FF3300F5437006F04FF9A5
:103C58002046082100F082FA206806F060F918B1C1
:103C68000849606906F061F92046FFF751FCA06831
:103C780000F5437006F094F9002010BD6FF0850040
:103C8800FBE700BF5DE700082DE9F04104468068C6
:103C9800154600F51E70002937D04FF4804106F014
:103CA80008F9A3680021DD64606803689B68984789
:103CB80000284BD12046FFF7AFFF002846D1244EFD
:103CC800244FDFF89480A06800F52F704FF0FF3282
:103CD8004FF0FF33032104F04BFD0546A0684FF079
:103CE800FF324FF0FF3300F543709DB106F0FFF847
:103CF80020462B46194A012106F0BCFDA068BDE804
:103D0800F04100F5437006F04BB96FF4804106F0BE
:103D1800DFF8C6E706F0EBF832460221204606F047
:103D2800E8F83A462946204606F0E3F82046424697
:103D3800012106F0DEF8606803685B6903B1984703
:103D4800A06800F5437006F02BF9BCE7BDE8F081E8
:103D58004531000865350008AD9F0008FDED0008F5
:103D680010B504460C4A082106F085F920460B4A8E
:103D7800082106F080F92046094A082106F07BF957
:103D88002046084A082106F076F92046064A00210E
:103D980000F01AFB002010BD14EE000852EE0008D7
:103DA800B1EE000805EF00089FEF0008F8B51E46C1
:103DB80017460B462F4A0821044606F05CF96EB3F5
:103DC80001253B782C4A0821204606F054F96A0759
:103DD80004D12A4A0821204606F04DF9AE4223D9DB
:103DE8007B5D0821244A204606F045F90135102D4F
:103DF800EDD1234A0821204606F03DF9D6B9012520
:103E08001E4A0821204606F036F9AE422B4613D842
:103E18001A4A0821204606F02EF918E00125194A09
:103E28000821204606F027F9164A0821204606F000
:103E380022F9DBE700252B46FB5C08212046A3F18D
:103E480020025F2A104A28BF2E2306F014F90135F4
:103E5800102D07D06B07D8D1084A0821204606F054
:103E68000AF9D2E72046094A0821BDE8F84006F0D9
:103E780002B900BFB5EF00082EE50008D3D9000845
:103E880034E50008D1D90008DCEF0008BCEF0008D1
:103E98002DE9F04304468068884689B0D0F820139D
:103EA80015461F46002960D14FF44A7208F034FCC9
:103EB800E06807F08EF8A06800F543704FF42F799A
:103EC8004FF41F7607F0D8FFA068304408F0F6FAE0
:103ED800A0680022012183191036484409F1140909
:103EE80008F0C3FAB6F52F7FEED1A36900260221A8
:103EF8001E6066F38205A06800F51E7005F0D9FF04
:103F0800A368502220465A871822A3681A87216876
:103F180006F0BEF8A368164A4146C3F874526068B2
:103F280003681D682346A8470546D0B9A36801223F
:103F38001A75D4E90A010022002304950094CDE9FA
:103F480006230E234FF400620393109BCDE90173FF
:103F5800084B03F039FEA368C3F82003616A03F035
:103F680051FD284609B0BDE8F0836FF07705F8E702
:103F78004D9F0008913C000810B5044613460A46B8
:103F88000146064801F024FB23691B7923B120462A
:103F9800BDE8104006F0CCB810BD00BF51A1000824
:103FA80038B50B46154648B91449154A521AB3EBA9
:103FB800920F05D251F82350284638BD84680CB9B1
:103FC8000025F9E70F4A94420AD30F4A944207D2D0
:103FD80018462268294690472B68002BECD1EFE75A
:103FE8000A4A944202D30A4A944205D32468142206
:103FF8005343E518E358F0E70133F8E710CE00081B
:1040080044CE000858CE000858CE000844CE000818
:1040180058CE0008F7B516460278002304462D2A24
:10402800019305D16FF015030020336003B0F0BD94
:104038000C4F08F081FB05460A46C35101A92046EA
:1040480004F0D6FEEB59222B02D16FF02103EBE7E7
:10405800002BE7D1019BA342E4D01B78002BE5D0CD
:10406800E0E700BF0C0000008368D3F874329B06B9
:1040780003D50249406906F076BA704784CE000835
:10408800014906F070BA00BF5EE700080A1E0DDCA1
:104098000ED042238168D1F87412890608D5002A07
:1040A80004494069B8BF524206F05DBA4123F1E7BE
:1040B800704700BFD8EF00080A1E0DDC0ED044235D
:1040C8008168D1F87412890608D5002A0449406924
:1040D800B8BF524206F047BA4323F1E7704700BF22
:1040E800D8EF00082DE9F04785680446DFF86490AA
:1040F80005F15600FCF730FA002386B295F83C70BB
:104108009846A268558FED1BB54209DB002E1FDDCE
:104118005633606910491A44BDE8F04706F023BADF
:104128001D44563349462A4492F856A082F85680D0
:10413800A26860691A4406F016FAA3682B4483F84B
:1041480056A0A3685B8FDB1B0027F61A2B46D8E71F
:10415800BDE8F08729E10008CBE9000808290A46EC
:1041680017D8836893F83E10914212D083F83E2006
:10417800082A8368D3F8743205D0990609D5054909
:10418800406906F0F0B99B0603D50349406906F07B
:10419800EAB97047DFEF000889CE000838B50D4648
:1041A80009780446FFF7DAFF6A78072A11D8A36866
:1041B80093F83F1091420CD083F83F20A368D3F8BE
:1041C80074329B0605D560690249BDE8384006F09F
:1041D800CAB938BDE8EF0008F8B583680446B3F8F3
:1041E8005020002A55D0B3F85210002951D055312B
:1041F80003F156050B441846A84206D3014611F8A8
:104208000169202E3CD0A8423CD286B2471C9DB200
:10421800AB1B9BB2591CD21A0144384608F062FA0B
:10422800A268711B2046B2F8503013FA81F309B224
:10423800A2F85030A368B3F850201344002283F842
:10424800562006F0F9F9A368D3F874329A0603D514
:104258001049606906F087F93B460F4A0821204655
:1042680006F008FB2046FFF7FFFEA368D3F8743278
:104278009B060ED560690949BDE8F84006F073B998
:104288000846B9E7014611F80169202EBDD0084655
:10429800B9E7F8BD8ECE0008CBE9000892CE000839
:1042A8002DE9F04104460D4617460AB1FFF7DCFE3A
:1042B800A368B3F85220D3F87412563213444A074D
:1042C80021D51846DFF84C80FCF746F90646A6B912
:1042D800A368B3F85020A3F85220A06806F050F95C
:1042E80020B107B115B16069FFF7CAFE69422046DF
:1042F80009B2BDE8F04106F09FB941466069013E48
:1043080006F031F9E3E7044A0821204606F0B2FA3C
:10431800DEE700BFB3F90008CBE9000813B58368EE
:1043280004468DF80710D3F87422D00725D5B3F8C2
:104338005210B3F850208A421FD0481C9DF807201D
:10434800A3F852000B4483F85620A368D3F87412DC
:10435800890710D5D3F87432606913F0040F0A493D
:1043680018BF2A2206F0FFF8204606F01AF910B105
:104378006069FFF785FE02B010BD01220DF107014B
:10438800204606F084FAF6E7DCEF000810B504468C
:104398008368094A022106F06DFAA368D3F87432DB
:1043A8009B0707D52046FFF79DFE2046BDE8104035
:1043B80006F01DB910BD00BFCBE90008014906F0A1
:1043C80035BC00BF5EE700082DE9F04F0E4600211E
:1043D80089B0044617460D4603AA304601F1010884
:1043E800FFF7DEFDB0B995B127B13A46082120465E
:1043F80006F040FA00211E4FDFF87890DFF878A029
:1044080003AA304601F10108FFF7CAFD60B909B0F7
:10441800BDE8F08F006810B1FCF79EF880B28542C5
:10442800414638BF0546D7E703688BB11A787AB199
:10443800D0F804B04A4608212046CDE900533B464F
:1044480006F018FABBF1000F04D16069FFF7B6FF58
:104458004146D5E7524620463B46082106F00AFA6F
:104468006A1D5946204692B206F0EDFBF0E700BF00
:1044780006F00008F1EF000829E50008F7B50F6815
:1044880005460E46A7B13846FCF766F884B2094BD4
:104498002846094A082100933B4606F0EBF9E21C3E
:1044A8007168284692B203B0BDE8F04006F0CBBB75
:1044B8003C46ECE702F00008F8ED000810B50749A3
:1044C8000446FCF737F838B105492046FCF732F8BE
:1044D800B0FA80F0400910BD0120FCE7F8EF0008B1
:1044E800FBEF000810B583680446D3F874329B06C6
:1044F80003D50649406906F01DFCA3685022002038
:104508005A871822A3681A8710BD00BF96CE0008E4
:1045180008B583690821034A1B6805F0ACFD002033
:1045280008BD00BF09F000082DE9F3410F4A082132
:1045380005460F4C05F09FFD0E4E0023DFF838802E
:10454800B44203F1010703D3002002B0BDE8F081B3
:10455800626A9BB2082128460192303454F8282C0C
:104568000092424605F087FD3B46E9E719F000084E
:10457800E0CD000810CE000831F00008024908B567
:1045880005F086FD002008BD5FE700087FB50446FA
:1045980000250E4EA2680DF10E030121E06802F518
:1045A800AB7206F077FCBDF80E00A36850B103F5B6
:1045B800AB7332460821204600932B4605F05BFD7D
:1045C8000135E7E783F8560104B070BD42F00008F2
:1045D80010B5044605F09EFD034A0346082120460F
:1045E80005F049FD002010BD45EB0008022907B57C
:1045F8000DD15368012101930C4B009313680C4AA9
:1046080005F039FD6FF0150003B05DF804FB836811
:104618000821084AD3F8743213F0020F064B08BF7A
:104628001346064A05F027FD0020EDE755F000087F
:104638004CF0000854DF000842E900086AF000085E
:1046480010B583680446D3F874329A0603D507492F
:10465800406906F06FFBA368D3F874329B0603D554
:104668000349606906F066FB002010BD9DCE000876
:10467800A2CE00080129F0B5044685B00CD05368D5
:10468800012101935E4B009313685E4A05F0F3FC29
:104698006FF0150005B0F0BD8368D3F87432990641
:1046A80003D55949406906F045FB6FF0F9012046EA
:1046B800FFF7ECFCFA2120460025FFF7FDFCA06877
:1046C8004FF48072294600F5AB708DF80B504FF40B
:1046D8007A7608F021F84D49606906F02BFB60698D
:1046E80005F026FD606801220DF10B0103681F69C2
:1046F80003ABB847039BF3B9013E4FF47A7007F058
:1047080069FBB6B2002EEDD1A368D3F874329B06CC
:1047180003D53F49606906F00DFBA3685022204687
:1047280003215A871822A3681A873A4A05F0A3FC7E
:104738006FF00700AEE79DF80B20A3681B2A52D044
:1047480093F856111B29CDD1522A4CD15A1900235E
:1047580082F85631A66896F857215B2A2AD106F2C4
:104768005710022510F8011F2A4601353B29ADB222
:1047780023D1FF2AC8D002F5AB7216FA82F10022C3
:1047880011F8010F18BBFA2A86F85601A16828BF4C
:10479800FA22FA2B4A8728BFFA23A2681387A3684C
:1047A800D3F874329A0603D51949606906F0C2FA3B
:1047B80000206FE786F85631A6E703EB830330390C
:1047C800B5F5807F01EB43018BB2CBD19CE7013576
:1047D80002EB82023038ADB200EB4200B5F5807FC3
:1047E80082B2CDD190E72B440135ADB283F8562182
:1047F800092D7FF677AFA368002283F8562183E757
:1048080055F000084CF00008A8CE0008B5F00008E4
:10481800ACCE00087BF000082DE9F04F074689B0C0
:104828001546894621B1104606F0D9FB00285BD110
:10483800032455E05C463CE029460AF5AB7007F0D6
:10484800D6FE0646002854D0FBF786FE314682B2D3
:10485800601C08F101080132304407F043FF22468A
:104868005946304607F030FF4FF020033355BAF869
:10487800543001331C44AAF85440002401994B1CBD
:1048880003AA48460193FFF78BFB0646E8B10022CE
:104898003168284606F048FD0028EFD1D6F800B068
:1048A800D7F808A0BBF1000FC4D05846FBF754FE58
:1048B80084B2BAF854302344FF2BBDDD01242B46C3
:1048C8000D4A0321384605F0D5FFB8F1000F07D08F
:1048D800B8682A4600F1540100F5AB7005F058FDA0
:1048E800204609B0BDE8F08F4FF000080224414689
:1048F800C5E70224E9E700BF77F500082DE9F8438A
:10490800054600AF0C46002948D0DFF8B890D9F822
:1049180000305A0742D06E468AB0A3686A46D1E989
:104928000001DFF8A4C04FF00508C2E905C0C2E9DC
:10493800071342F8108F00234FF421514846FDF722
:104948003BFCD9F80030B5465B0727D08AB06369CD
:10495800D4E903016A46DFF874C0C2E90713C2E963
:1049680005C042F8108F002348464FF42151FDF747
:1049780023FCD9F80030B54658070FD0E369012168
:10498800134A484605F085F9D9F80030590705D08B
:10499800A369104A0121484605F07BF9012D0AD187
:1049A800EFF3058307480268520704D00A4A103B10
:1049B800294605F06EF92146284602F0ADFCBD46B1
:1049C800BDE8F88360010120C9F50008F8F5000882
:1049D80027F6000836F6000864F6000808B5034B09
:1049E8001B689847BDE8084000F026B84800012039
:1049F80030BFFFF7FDBF00BF2DE9F0410B4E054664
:104A0800DFF82C80324606EB0807CC1B0949204604
:104A180007F05AFEA019083C4246002107F07CFE28
:104A280007F10800C5F8B840BDE8F08100000000B3
:104A38000800000058CE0008074A936893F90E1042
:104A4800002907DBD269934204D0044A536843F033
:104A580080535360704700BF580F012000ED00E0FD
:104A6800F8B5374C06460D4623685B0703D0354931
:104A7800204606F0FDFA344B9B6ADF0451D52368C3
:104A8800580703D031492E4806F0F2FA17202E4B6A
:104A98009B6A190507D523685A0703D02C4928486B
:104AA80006F0E6FA1820284FBB6A9B0519D523683B
:104AB800580703D02749224806F0DAFABB6BBA6ACE
:104AC80011040DD52268520704D0234A01211C483D
:104AD80005F0DFF826B11C4A936A23F40043936279
:104AE8001920194B9B6A5B0507D523685F0703D01C
:104AF8001A49134806F0BCFA1A20134B9A6AD605CD
:104B080011D52368590703D015490D4806F0B0FAA6
:104B18001B200D4A936A43F47F43936200232B7052
:104B2800F8BD1620B3E79B6A9A04F2D523685B07A1
:104B380003D00C49024806F09BFA1C20E9E700BFA5
:104B48006001012077F6000800ED00E08DF600080E
:104B58009EF60008B1F60008CAF60008DFF600085D
:104B6800FAF6000812F7000810B52D4C23685A070A
:104B780003D02C49204606F07BFA2B4B9B6A9B01FD
:104B88004BD52368580703D02849254806F070FA02
:104B98001E20254B9B6AD90107D523685A0703D0E5
:104BA80023491F4806F064FA1F201F4B9B6A1B030A
:104BB80007D52368580703D01E49194806F058FA44
:104BC8002120194B9B6A590307D523685A0703D03C
:104BD8001949134806F04CFA2220134B9B6A9B0391
:104BE80007D52368590703D014490D4806F040FA41
:104BF80023200D4B9B6ADA0307D523685B0703D094
:104C08000F49074806F034FA2420074A936A6FEAE6
:104C180003436FEA1343936210BD1D20B9E700BF39
:104C28006001012041F7000800ED00E059F7000895
:104C38006CF7000886F70008A4F70008C9F7000811
:104C4800E3F700082DE9F047454D894680461746A9
:104C58002B68590703D04349284606F009FA424B06
:104C68009B6ADA0639D52B685B0703D03F493C4875
:104C780006F0FEF911243C4B9B6A1E0707D52B68EA
:104C8800580703D03A49364806F0F2F91224DFF8FB
:104C9800D8A0DAF82830990721D52B685A0703D00D
:104CA80034492F4806F0E4F9DAF83460DAF82830A5
:104CB8001B0651D52B685C0705D02F4A33460121C6
:104CC800274804F0E6FFB9F1000F04D0264A936A9A
:104CD80023F080039362132403E01024CBE76FF0E2
:104CE8001506214B9B6AD80707D52B68590703D0AF
:104CF80022491B4806F0BCF914241B4B9B6A9A06F0
:104D080007D52B685B0703D01D49154806F0B0F995
:104D18001524154B9A6AD50602D49A6A90070AD5C3
:104D28005B68190507D54146304600F05DFA10B1B9
:104D380080F3098802240C4B9A6A920603D55A6AB2
:104D480022F400525A629A6A204642F0FF029A629E
:104D580000233B70BDE8F0876FF01506BBE700BF86
:104D6800600101200EF8000800ED00E024F80008BA
:104D78009EF6000857F800086FF8000885F8000844
:104D880012F700082DE9F041744B8AB0044600255B
:104D9800D3F8048000AFC8F3080685F31188BFF381
:104DA8006F8F02F07F43B3F17F4F0AD102F00C03FB
:104DB800082B15D16A480368590702D0694906F0DB
:104DC80057F900252C460023FB71F31E092B00F22E
:104DD800A080DFE803F00A92958E9E9E9E9E9E9884
:104DE80012074CBF0C460125EDE75D4E33685B07A3
:104DF80003D05D49304606F03BF90023FB71574B61
:104E0800DA6A900708D53368590703D057495448D8
:104E180006F02EF900233CE0DA6A002A04DA336847
:104E28005A07F7D05249F2E7DB6A5B00F2D53368DC
:104E3800580703D04F494A4806F01AF9474BA16969
:104E48005A6942F480725A61BFF34F8FBFF36F8F74
:104E58005A6931F8021C22F480725A61BFF34F8FED
:104E6800BFF36F8F4DF60272914208D09A6AD2B2A0
:104E780092B3FA1D01212046FFF7E4FE3BE03368B8
:104E8800590705D023683C4A0121354804F001FF41
:104E98002368FA79E2B907F1080604F1200C2068C2
:104EA800083454F8041C3246644503C21646F6D149
:104EB8007A6A002D4DD0C2F3080121B96FEA522257
:104EC8006FEA42227A6207F108011846FFF716FDD9
:104ED8002837BD46BDE8F0819A6A12F47F4F04D0A6
:104EE800F91D0120FFF7BCFD05E09B6AB3F5803F83
:104EF80090D3FFF739FE0346CBE7FA1D0021BAE746
:104F0800F91D0020EEE7164803685A0782D01B49AE
:104F18007EE7134803685B073FF47CAF18F4F87F1B
:104F2800174AE8468AB0174B18BF13466A4616490F
:104F3800103EC2E905134FF40073D6611384134B76
:104F480042F8103F00234FF41151FDF735F9C546DB
:104F580060E722F4FF7222F00102B3E700ED00E0FF
:104F680060010120D2F80008FDF8000814F90008D3
:104F780035F9000843F9000862F900087EF90008CD
:104F8800B9F80008A4F80008A2F900080400000114
:104F9800024A536943F010035361704700ED00E083
:104FA800EFF30880EFF3098101B57246FFF7EAFED7
:104FB80001BD00BF102080F311880B484FF0AA01F3
:104FC8004FF4046206F040FF07484FF404614018AC
:104FD80080F30988EFF314800221084380F31488D2
:104FE800BFF36F8F00F0C4F880380120BFF34F8FF4
:104FF8000549064BCA6802F4E0621343CB60BFF36D
:105008004F8F00BFFDE700BF00ED00E00400FA0588
:10501800084B9B6883420BD1EFF3058343B1064BE2
:105028005A6842F080525A605A6A22F400425A6220
:1050380007F076B8580F012000ED00E00A4A6FF03B
:105048000A019368C3F8C0100849C3F8BC004B684C
:1050580043F080534B60002383F31188BFF36F8FB5
:105068009368D3F8C0007047580F012000ED00E0A6
:1050780010B50446EFF31183102383F31288BFF3AE
:105088006F8F0C4B4FF00062D86998600A4B5A60DA
:105098000A4BD0F8B8201A600022D0F8BC30C0F80B
:1050A800BC2083F31188BFF36F8F00F00DF9204601
:1050B80010BD00BF580F012000ED00E020150120B1
:1050C80001B506F00BFFBDE801400E498A684FF0B4
:1050D80040001044EFF3098C80E8F01F74467046D6
:1050E800FFF7C6FFA64607498A6802F1400090E824
:1050F800F01F8CF3098801B502F092FDBDE801406C
:1051080070470000580F01201EF0040F0CBFEFF38A
:105118000880EFF30980816911F8021C0229FFD089
:1051280001B505F0A1FF01BD40B2002807DB01234E
:10513800410900F01F00024A834042F821307047BD
:1051480000E100E040B2013100284FEA0111C9B284
:1051580006DB00F1604000F5614080F800137047FD
:1051680000F00F00014B1954704700BF14ED00E028
:105178000F4A08B522F07F020E4B9A60BFF34F8F9B
:10518800BFF36F8FD3F8882022F47002C3F8882009
:10519800EFF3148323F0040383F31488BFF36F8FB2
:1051A80002F0BAF903F0D2F800F064F802F010FA4D
:1051B8000000000800ED00E042F8203C203A009B87
:1051C80008495360019B21F001019360029B9161A2
:1051D800D3604FF08073D36100230266C0F8BC30FF
:1051E800704700BFE11700080A4A0346906878B183
:1051F80013F1160FD0F8A80005D0A0F140029A428A
:1052080005D8834203D2814228BF0020704700207E
:10521800704700BF580F012008B50F4B04461546CC
:10522800D0F8B82098600E460C4B1A6002F0F8FCD3
:10523800204600F049F82C4686F309884FF0000014
:10524800074B984720464FF000014FF000024FF0FF
:105258000003044C204700BF580F012020150120EF
:1052680089B00008E1170008014B10221A61704745
:1052780000ED00E0002304481021C2180133622B1E
:1052880082F80013F9D1704700E100E008B5EFF3A8
:105298000583064A103B02EBC30152F83300496804
:1052A8008847BDE80840FFF7C7BB00BF78C90008BA
:1052B800024B0121024A034800F092B80000052081
:1052C800000001200CD50008D0F8A8204021054B8B
:1052D800403A18461A60044AC3E90112012100F055
:1052E80089B800BF2415012000000B1508B5034636
:1052F8001148D0F89020C2F30722013A93420AD904
:105308000E480268520703D00D4A012104F0C1FC7F
:105318006FF0150008BDC0F898300A6822F01F0227
:105328001A4342F01002C0F89C208A6842F0010239
:10533800C0F8A0201846EDE700ED00E05C01012070
:10534800B9F90008F0B50E4685B01F460446002599
:10535800B54210DA606828B3AFB1431E18420DD0C9
:10536800124803685B0704D0114A2B46012104F058
:1053780090FC6FF01502104605B0F0BD1F28EFD95C
:1053880021680B42ECD1236801A9019305F08CFE3A
:10539800A3680343D0B20393FFF7A8FF10F1160FD9
:1053A800E7D0421C01350C34D2E700BF5C01012074
:1053B800DFF90008044B0522C3F89420BFF34F8F90
:1053C800BFF36F8F704700BF00ED00E0BFF35F8F42
:1053D800024B0022C3F89420704700BF00ED00E0A4
:1053E80010B5034C01232278FFF7ACFF207010BDE5
:1053F800EF1701200B4A08B500231278FFF7A2FF28
:1054080010F1160F07D0084A0021D2F89030C3F3E4
:105418000723984200DB08BDC2F898000130C2F8A3
:10542800A010F2E7EF17012000ED00E058485949B5
:105438002DE9F043D0F8903085B00D68C3F3072309
:105448009D4200F2A180FFF7C1FF49680022954202
:1054580001F10C011AD1504C6846504F2570FDF7E8
:1054680063F900250646DFF83881DFF83891AE4247
:105478001FD1237800204649D1F89020C2F3072293
:1054880093427BDB0020FFF795FF4CE0C0F89820A3
:1054980051F80C3C23F01F031343013243F010036F
:1054A800C0F89C3051F8043C43F00103C0F8A03028
:1054B800CDE700984FEA051C00EB0511CB683B408F
:1054C800B3F5000F44D00AD8B3F5001F2ED0B3F5BA
:1054D800800F34D0B3F5801F10D00135C7E7B3F182
:1054E800807F3ED0B3F1007FF7D150F80C30886848
:1054F80005F0DAFD4A6840F4802009E050F80C30E5
:10550800886805F0D1FD40F088504A6840F43020A2
:10551800039001A92078CDE90123FFF7E7FE0028D1
:1055280028DA6FF0150005B0BDE8F08350F80C30AC
:10553800886805F0B9FD4A6840EA0800E8E750F8CD
:105548000C30886805F0B0FD4A6840EA0900DFE7DA
:1055580050F80C30886805F0A7FD4A6840F0827062
:10556800D6E750F80C30886805F09EFD4A6840F090
:105578008870CDE7237801332370AEE7C1F89830FF
:105588000133C1F8A00077E74FF0FF30CBE700BF49
:1055980000ED00E018D50008EF1701200000F0FF2B
:1055A800000008110000020708B5024B1B68984765
:1055B800002008BD30150120034B044A1860937879
:1055C80043F0020393707047301501204C0001200E
:1055D800F0B587B007460E461446002110226846EB
:1055E8001D4607F099F802232A4621468DF8023015
:1055F8006846044BCDE90476019303F05FFC07B0DD
:10560800F0BD00BFD1B000080649074821F00701E6
:10561800C1F1005208B502F5A02203F0E0FE002017
:1056280008BD00BFC74D01203415012008B500F0A2
:10563800B7F80A4901220023416109490361C0E919
:1056480000220A6007490A60074A1360074A136084
:10565800074AC0E90233136008BD00BF5FE70008CE
:10566800780001207400012048150120441501200C
:10567800401501202DE9F04107460E46154600F079
:105688008FF8C36804461BB943691A78002A41D1C8
:105698000023E3606368BB4256F8232008DB324BE3
:1056A8006361204600F062F84FF0FF30BDE8F081FA
:1056B800511C616192F80080B8F12D0FEFD1911C57
:1056C800616151782D29A16004D192786AB90133BA
:1056D8006360E4E749B9244B41462846636106F014
:1056E8004BFF0028DDD0C4F80880D4F8088028468D
:1056F800414606F041FFB8F13A0F636900D070B92E
:105708001B7813B9636801336360204600F02EF8F4
:105718003F20CBE75A1C42611B788360E5E742785B
:105728003A2A0BD0002222611B7813B9636801332F
:105738006360204600F01AF8A068B7E71878626836
:10574800094928B901329742626004DD56F82230CF
:10575800C4E90431EAE7616120462D783A2DD5D1B4
:1057680000F004F82846A1E75FE700080268074B45
:105778001A604268064B1A608268064B1A60C26853
:10578800054B1A600269054B1A60704778000120C2
:1057980074000120481501204415012040150120FE
:1057A800004870475C0001202DE9F04105460024BF
:1057B8004FF001080D4E0E4F2B7853FA84F01F2836
:1057C8000DDC08FA00F3726933EA020207D173614B
:1057D80057F830301BB107EBC002516898470134C5
:1057E8006A78E3B29A42E7D2BDE8F081003C014012
:1057F8004C150120044B18440023013300F8012BF9
:105808009942FADC704700BFC2000120064B0246ED
:10581800064910B4185601230C68934023430B60C3
:1058280010BCFFF781BC00BFC2000120003C014052
:105838001F2806DC034901220B68824023EA020381
:105848000B607047003C014003292AD8DFE801F0CB
:10585800020E141F134B01229968824021EA0201AB
:105868009960D96821EA0202DA60704701220D4B7B
:10587800824099681143F3E70A4B0122D9688240B4
:105888001143D960996821EA02029A60704701239E
:1058980003FA00F0034B9A6802439A60DA681043EF
:1058A800D8607047003C01400A4B30B553F830408F
:1058B8008C4204D103EBC0056D68954205D034B91C
:1058C80043F8301003EBC0035A60002030BD6FF07E
:1058D8000F00FBE74C150120034B002243F8302052
:1058E80003EBC0035A6070474C15012003460C486F
:1058F800B0B5026800AF520710D06C4688B01B687C
:105908006A46084DD3610423C2E9055142F8103FA5
:1059180000234FF40151FCF74FFCA546BD46B0BD2E
:105928003801012044FA00082DE9F04F8BB00546F4
:105938009146984602AFD0F808A00C46D7F848C060
:10594800002930D04E7940F2FF7BD1F800E016F004
:10595800010618BF6FF0604B3EEA0B0B29D02748B1
:1059680003685B071FD0002E254A6C468CB0254B78
:1059780013BF1D2513460B25082108BF032102AAC2
:10598800214EC2F824E0C2E905634FF40073138581
:105998001E4BC2E9075142F8103F00234FF4515102
:1059A800FCF70AFCA5466FF015002437BD46BDE894
:1059B800F08FBCF1000F1AD13E1D0122614630461E
:1059C80006F061FA124B01964A4600932146DAF82E
:1059D80014A043462846D0470028E6D14FF0FF32AE
:1059E8004FF0FF33304601F0E7FFF869DDE7FC6C64
:1059F800CDE900C4DAF81440A047D6E73801012001
:105A080070FA000867FA000879FA00080600000131
:105A1800C9B3000810B41346826894690A4602495B
:105A2800A44610BC604700BFD1B300082DE9F04F71
:105A38000F4689B091461E46D0F808A06A4BD0F8A8
:105A480008809A4200F2CD80B8F83C40B8F83E3061
:105A580001341C44B8F840301C44002A00F0C180CE
:105A6800B6F57A7F80F0BD80836807A99B6A98475E
:105A7800002840F0B3804EB95C4B994535D85C4B53
:105A880040F26B36994588BF4FF44876079B04FB74
:105A980009F4B3FBF4F40293BAF838309C4238BFE7
:105AA8001C466FF0004304FB09FB0393B8F842302F
:105AB8009C421DDD0398FB88BA885B08934228BF87
:105AC80013463B80BAF83020934204D9B8F83A20FC
